:100000000C94BB000C94D8000C94D8000C94D8002D
:100010000C94D8000C94D8000C94D8000C94D80000
:100020000C94D8000C94D8000C94D8000C94D800F0
:100030000C94D8000C94D8000C94D8000C94D800E0
:100040000C94D8000C94D8000C94D8000C94D800D0
:100050000C94D8000C94D8000C94D8000C94D800C0
:100060000C94D8000C94D8006E616E00696E660026
:1000700000407A10F35A00A0724E18090010A5D45F
:10008000E80000E87648170000E40B54020000CABC
:100090009A3B000000E1F505000080969800000002
:1000A00040420F000000A086010000001027000061
:1000B0000000E803000000006400000000000A00E7
:1000C000000000000100000000002C76D888DC67EA
:1000D0004F0823DFC1DFAE59E1B1B796E5E3E45342
:1000E000C63AE651997696E8E6C28426EB898C9B5F
:1000F00062ED407C6FFCEFBC9C9F40F2BAA56FA5FF
:10010000F490055A2AF75C936B6CF9676DC11BFC80
:10011000E0E40D47FEF520E6B500D0ED902E03009B
:10012000943577050080841E080000204E0A0000E8
:1001300000C80C333333330F986E12831141EF8DA7
:100140002114893BE65516CFFEE6DB18D1844B38E7
:100150001BF77C1D901DA4BBE424203284725E2218
:100160008100C9F124ECA1E53D276364696E6F70DD
:10017000737578585B0011241FBECFEFD8E0DEBF47
:10018000CDBF11E0A0E0B1E0ECEDFDE102C00590D3
:100190000D92A238B107D9F721E0A2E8B1E001C081
:1001A0001D92AB3DB207E1F70E9430050C94EC0EB6
:1001B0000C940000AFE0B0E0E0EEF0E00C94EA094F
:1001C0006C011B015A01FC0117821682838181FF99
:1001D00048C39E012F5F3F4F4901F6019381F10112
:1001E00093FD859193FF81911F01882309F4E7C254
:1001F000853239F493FD859193FF81911F018532FA
:1002000039F4B60190E00E94210B35015301E5CF8E
:10021000F12C512C00E0003238F48B3209F190F4CB
:100220008032F9F0833209F107FD34C020ED280F48
:100230002A3020F506FF1BC0FAE0FF9E200D112496
:10024000F22E05C08D3279F0803371F70160F10133
:1002500093FD859193FF81911F018111DCCF1AC01D
:1002600002600460F4CF0860F2CF0061F0CF3AE0A2
:10027000539E200D1124522E0062E9CF8E3221F4BC
:1002800006FD9DC20064E3CF8C3611F40068DFCF19
:100290008836E9F29BEB980F933008F05FC000615D
:1002A000805E06FD02C046E0F42E102F1F738536D7
:1002B00009F05BC0106417FF61C08F2D9BE39F1591
:1002C00008F48BE344244394480E27E03501F4E01E
:1002D0006F0E711CF5016081718182819381042D03
:1002E000A4010E94210A5C01F981FC87F0FF03C090
:1002F0000DE2F3FF07C00BE211FD04C0012F0470F3
:1003000012FD00E22C852C70E22E09F457C0011179
:10031000ABC2F3E0E12CF515A0F483E0E52CE81A7C
:1003200013FD08C0B60180E290E00E94210BEA9420
:10033000E110F8CF002329F0B601802F90E00E9451
:10034000210B3C8528E6A22E20E0B22E33FD04C00E
:100350009CE6A92E90E0B92E107122C09BE9980F5F
:10036000933008F033C10F7E9CCF863611F41068AD
:10037000A2CFFF2009F49FCFFA949DCFE7E02F2D65
:10038000EF1518F427E037E0F32E412C9FCF111121
:100390008052B60190E00E94210B8FEFA81AB80A94
:1003A000F50184918111F3CFEE2009F42FCFB6012E
:1003B00080E290E00E94210BEA94F6CF17FF6FC015
:1003C0004A0CFC85F4FF04C08A81813309F44A9405
:1003D00014140CF086C028E0241510F488E0482E90
:1003E00085E090E017FF06C0C501B7FE02C090E0AF
:1003F00080E0019601110196FF2031F02F2D30E0B1
:100400002F5F3F4F820F931F5816190619F014F0F3
:10041000E52CE81A812F897011F4E11067C00023E0
:1004200029F0B601802F90E00E94210B13FD02C03D
:10043000E11063C017FF7CC08501B7FE02C010E069
:1004400000E0C501841991092C016F2D70E0EE27A1
:10045000FF27E61BF70BFF87EE870F3F100729F4F6
:10046000B6018EE290E00E94210BA016B1060CF4BA
:100470004BC0401651060CF047C0F501E01BF10BD4
:10048000E80DF91D8181015011092E853F85021764
:100490001307E4F1B60190E00E94210BDECF16FDB8
:1004A0009FCFEF2DF0E0EA15FB0534F03CEFA316EB
:1004B0003FEFB3060CF010683296E80DF91D01C04D
:1004C000FA94FF2019F082918033D1F317FF88CF7F
:1004D000442443944F0CFA141B0431F02CF0FA1806
:1004E0007FCF442443947CCFF12C7ACFB60180E2B5
:1004F00090E00E94210BEA9490CFB60180E390E057
:100500000E94210BEA9494CF80E3BDCFA016B106E0
:1005100041F49A81963350F4953319F43C8534FFB5
:1005200005C0B60190E00E94210B3ECF81E3F9CFD8
:100530008A81813319F09C859F7E9C87B60190E06B
:100540000E94210BFF20A9F0B6018EE290E00E94EC
:10055000210BF394F394E2E001E00E0FE80DF92D86
:10056000F11D8081B60190E00E94210BE02F0F1158
:10057000F3CF85E690E014FF02C085E490E0B60179
:100580000E94210BB7FC06C0A114B104C1F4EC8594
:10059000E4FF15C0B194A194B1088DE2B60190E0DA
:1005A0000E94210B80E32AE0A216B10454F4B601A4
:1005B00090E00E94210BB601C501C096B4CF8BE23A
:1005C000EDCF8F5FFAE0AF1AB108EDCF8336C9F0F7
:1005D000833771F1833509F05BC03501F2E06F0EAE
:1005E000711CF501A080B1806F2D70E006FD02C086
:1005F0006FEF7FEFC5010E94F90A9D878C87006825
:100600000DC0350132E0630E711CF50180818983D4
:1006100021E030E03D872C8754010F7703FD06C0B1
:100620002C853D855216130609F0A8F4E52C2BC045
:10063000350132E0630E711CF501A080B1806F2D91
:1006400070E006FD02C06FEF7FEFC5010E94040B52
:100650009D878C87E2CFB60180E290E00E94210B5B
:100660005A94DECFF50107FD859107FF81915F0167
:10067000B60190E00E94210BE110EA948C859D85E3
:1006800001979D878C87EC85FD85EF2B59F78CCEE4
:10069000843619F0893609F074C0350107FF66C049
:1006A000F4E06F0E711CF50160817181828193818C
:1006B000102F1F7697FF08C09095809570956195D3
:1006C0007F4F8F4F9F4F10682AE030E0A4010E94B7
:1006D000930BA82EA818BA2C012F16FF0AC00E7F64
:1006E000AF1438F414FF04C012FD02C0012F0E7EB7
:1006F000BF2C04FF8EC0FE01EA0DF11D8081803306
:1007000009F080C0097EF02FF870EF2E03FD90C035
:1007100000FF8AC0FA2CB51410F4F50CFB1804FF86
:100720008DC0B60180E390E00E94210B02FF09C05A
:1007300088E790E001FF02C088E590E0B6010E94E2
:10074000210BAF1408F486C0AA940A2D10E00F5FA5
:100750001F4F080D191DF80182918F01B60190E01D
:100760000E94210B80169106B1F71ECEF2E06F0EAB
:10077000711CF50160817181072E000C880B990BAB
:1007800097CF102F8537A9F41F7E2AE030E035017E
:1007900017FF2FC0F4E06F0E711CF50160817181AD
:1007A00082819381A4010E94930BA82EA8181F7721
:1007B00092CF197F8F36D1F048F4883591F0F60149
:1007C000868197812F96E2E10C94060A803739F0F2
:1007D0008837A9F714FD146020E130E0D8CF10610C
:1007E000F9CF04FD166020E132E0D1CF28E030E0FF
:1007F000CECFF2E06F0E711CF5016081718190E047
:1008000080E0D0CF02FD02C0B3947DCFB394B39407
:100810007ACF802F867809F476CFF6CFB60180E2C2
:1008200090E00E94210BB394B514C0F3E12C77CF74
:10083000E52CEB18B51408F472CFF8CF802F86782A
:1008400009F47FCF8BE201FF80E207FD8DE2B60164
:1008500090E075CFB60180E390E00E94210BFA94FE
:1008600070CF8FEF9FEFAECF24E0E12C251508F07D
:1008700063CD84E053CD0E940D0860E081E00E94CA
:10088000E80781E00E94070860E086E00E94E80730
:1008900080E00E94070860E08EE00E94E80780E0A8
:1008A0000E9407080895CF93C82F8091820181117B
:1008B00011C0CB3139F481E08093820190E080E077
:1008C000CF91089580E00E94070861E08C2F0E947C
:1008D000E807F4CF80E00E94070860E08C2F0E94B8
:1008E000E807C43018F010928201E8CF81E00E943E
:1008F0000708F9CFEAE7F0E09081906890838837A5
:10090000B1F0893719F1EAE7F0E0908190649083C3
:10091000908196FDFDCF60917800709179008837C5
:1009200021F1893709F45CC090E080E00895ECE79C
:10093000F0E090819E7F908390819D7F9083908155
:100940009B7F90839081977F9083DDCFECE7F0E0F1
:1009500090819160908390819D7F908390819B7F17
:1009600090839081977F9083CECFCB01825092402D
:100970008E3F21E09207E8F0623082E0780708F0CD
:1009800069C062507240072E000C880B990B0E94C0
:10099000F10820E030E840E054E40E94470820E0FD
:1009A00030E048EC52E40E947D090E94B908CB0176
:1009B0000895BC01072E000C880B990B0E94F108CA
:1009C00020E030E84EEF53E40E94470820E030E09A
:1009D00048EC52E40E947D090E94B908CB010895B9
:1009E000CB01855092408B3F21E09207E0F06530CB
:1009F00082E0780790F565507240072E000C880B56
:100A0000990B0E94F10820E030E441E054E40E9498
:100A1000470820E030E048EC52E40E947D090E9443
:100A2000B908CB010895BC01072E000C880B990B67
:100A30000E94F10820E030E04DEF53E40E944708A7
:100A400020E030E048EC52E40E947D090E94B908A1
:100A5000CB01089590E080E0089590E080E0089553
:100A6000CF93DF93CDB7DEB7AB970FB6F894DEBF69
:100A70000FBECDBF0E943B0405ED11E08EE091E07A
:100A8000D80115969C938E93149783E080937E00F3
:100A900087E880937A00ECE7F0E0808180648083CF
:100AA0002098289A0E946F06F8012481358142E03F
:100AB00050E061E070E08CE191E00E94630BD801AE
:100AC00014962D913C914CE150E061E070E08FE193
:100AD00091E00E94630B1899FECF05ED11E0F8013B
:100AE0002481358142E050E061E070E08CE391E0E8
:100AF0000E94630BD80114962D913C914FE050E079
:100B000061E070E08FE391E00E94630B20E031E050
:100B100042E050E061E070E08FE491E00E94630BFE
:100B2000FE0131969E012E5E3F4F80EC90E066EC18
:100B300070E0DC014C914423E4F7DB014C914193DC
:100B4000E217F307B1F720E031E045E050E061E063
:100B500070E082E591E00E94630B8E010E5E1F4FF4
:100B60001F930F9386E791E09F938F9380E091E02E
:100B70009F938F930E94510B2091D9013091DA01FC
:100B800042E050E061E070E08CE391E00E94630B92
:100B90001F930F93CE0101969F938F9388E591E069
:100BA0009F938F938EE091E09F938F930E940F0B02
:100BB0000FB6F894DEBF0FBECDBF0F2EFFE58F2E10
:100BC000F1E09F2EF02D0F2EF0E06F2EF1E07F2E42
:100BD000F02D7E01F5E2EF0EF11C00EC10E00F2E7F
:100BE000F6ECCF2ED12CF02D2E0122E1420E511C1D
:100BF0000F2EF0E72F2EF1E03F2EF02D4CC0BB2042
:100C000014F08DE261C0B194A194B108FACF4DE225
:100C10001F929F933F932F931F924F93BF92AF9238
:100C20001F928F939F928F927F926F920E940F0BD1
:100C3000FE017C960FB6F894DEBF0FBECDBFD80183
:100C40008C918823E4F7D6018C918193EE15FF05F2
:100C5000B1F78CA18DA38C8D8EA38D8D8FA3B0E267
:100C6000B8A788A189A789A18AA78AA18BA71CA652
:100C7000FF92EF925F924F923F922F928091DA0112
:100C80008F938091D9018F930E940F0B0FB6F89428
:100C9000DEBF0FBECDBF8FEF9FE7A4E08150904035
:100CA000A040E1F700C0000088E70E947A045C01E0
:100CB00089E70E947A049C0193B1B1E09B2791706F
:100CC0008BE2BB200CF49BCF4BE233230CF0A0CF84
:100CD00033230CF09CCF31952195310998CF87E1D2
:100CE0008093C40088E18093C1000895CF93C82FFA
:100CF000873069F08A30C1F0E0ECF0E0808185FF58
:100D0000FDCFC093C60090E080E0CF910895209180
:100D1000D9013091DA0147E050E061E070E089E705
:100D200091E00E94630BEFCF8DE00E947606E4CF46
:100D30004F925F927F928F929F92AF92BF92CF928B
:100D4000DF92EF92FF920F931F93CF93DF93209147
:100D5000D3013091D401232BF9F0E091D301F0912C
:100D6000D401CF0101969093D4018093D301808167
:100D70008A3009F4F5C090E0DF91CF911F910F9177
:100D8000FF90EF90DF90CF90BF90AF909F908F90AB
:100D90007F905F904F9008958C010F2EF3E88F2E77
:100DA000F1E09F2EF02DC0ECD0E00F2EF6ECEF2EF0
:100DB000F12CF02D6894772475F854010F2EF2E889
:100DC0004F2EF1E05F2EF02D1EC08AE0F4018083EB
:100DD000B8010E94760683E891E09093D401809355
:100DE000D301BBCF872DF2ED8F16F1E09F0609F4FA
:100DF0004AC064019FEFC91AD90AF4018083B8017F
:100E00000E947606460188818823ECF7888184FD5C
:100E1000ACC0888183FDACC0F70180818D30A9F220
:100E20008A3099F28930F1F290EE980F9F35D8F21E
:100E3000803AC8F6823109F478C080F1873109F42C
:100E40004CC08F3799F18531F1F683E8881681E03F
:100E50009806C9F2C0F2B80188E00E947606B8018F
:100E6000872D0E947606B80188E00E947606F1E0A0
:100E70008F1A910883E8881681E0980661F7F201DD
:100E800031964F01C0CFB80187E00E9476060F2E41
:100E9000F2ED8F2EF1E09F2EF02DB5CF833019F4B7
:100EA0008FEF9FEF69CF883009F0ADCF93E88916B7
:100EB00091E0990609F008F4A6CFB80188E00E94F5
:100EC0007606B801872D0E947606B80188E00E9458
:100ED0007606E1E08E1A910896CFF3E88F16F1E0DE
:100EE0009F0609F008F48FCFF401319780816401E7
:100EF000F1E0CF1AD108803209F485CFB80188E03B
:100F00000E947606B801872D0E947606B80188E017
:100F10000E9476064601CA14DB0409F474CFF60178
:100F200082916F01803251F76ECFB8018DE00E943F
:100F30007606F3E88F16F1E09F0609F008F463CF18
:100F40000F2EF3E8CF2EF1E0DF2EF02DB801F601E1
:100F500081916F010E9476068C149D04B9F753CFDE
:100F60001092D4011092D30106CF8EEF9FEF04CFE1
:100F70008FEF9FEF01CF2998611111C02A989BB183
:100F80009F7040E1849F90011124892F822B8BB99F
:100F90005A9A82E08A95F1F700C05A9808952A9AE1
:100FA000EECF299A9AB19F709AB981110FC02A98F1
:100FB0005A9A82E08A95F1F700C089B15A989AB19D
:100FC000906F9AB9299882958F7008952A9AF0CFD8
:100FD000CF93DF93C82FD62F82958F700E94BB07C7
:100FE0006D2F8C2F8F700E94BB07DF91CF910895DA
:100FF000CF93DF93C82F0E94D107D82FD295D07FEF
:101000008C2F0E94D1078D2BDF91CF91089580E026
:101010000E94F8078823DCF30895229A219A529AB5
:101020008AB1806F8AB98FEF97ED0197F1F700C011
:10103000000060E083E00E94BB078AE09BE3019729
:10104000F1F760E083E00E94BB0780E791E0019741
:10105000F1F700C060E083E00E94BB0796EB9A9531
:10106000F1F760E082E00E94BB0780E00E94070881
:1010700060E088E20E94E80780E00E94070860E0E4
:1010800088E00E94E80780E00E94070808950E9417
:101090005B080C9443090E943C0958F00E943509F2
:1010A00040F029F45F3F29F00C942C0951110C9465
:1010B00077090C9432090E94540968F39923B1F31B
:1010C000552391F3951B550BBB27AA27621773076E
:1010D000840738F09F5F5F4F220F331F441FAA1F02
:1010E000A9F335D00E2E3AF0E0E832D091505040BE
:1010F000E695001CCAF72BD0FE2F29D0660F771F6C
:10110000881FBB1F261737074807AB07B0E809F051
:10111000BB0B802DBF01FF2793585F4F3AF09E3FD6
:10112000510578F00C942C090C9477095F3FE4F397
:10113000983ED4F3869577956795B795F7959F5F19
:10114000C9F7880F911D9695879597F90895E1E065
:10115000660F771F881FBB1F621773078407BA07C4
:1011600020F0621B730B840BBA0BEE1F88F7E0951F
:1011700008950E94C0086894B1110C9477090895ED
:101180000E945C0988F09F5798F0B92F9927B751B2
:10119000B0F0E1F0660F771F881F991F1AF0BA951B
:1011A000C9F714C0B13091F00E947609B1E00895FA
:1011B0000C947609672F782F8827B85F39F0B93FEC
:1011C000CCF3869577956795B395D9F73EF49095CE
:1011D0008095709561957F4F8F4F9F4F0895E8944C
:1011E00009C097FB3EF490958095709561957F4F6F
:1011F0008F4F9F4F9923A9F0F92F96E9BB2793951D
:10120000F695879577956795B795F111F8CFFAF42C
:10121000BB0F11F460FF1BC06F5F7F4F8F4F9F4F5D
:1012200016C0882311F096E911C0772321F09EE8BB
:10123000872F762F05C0662371F096E8862F70E021
:1012400060E02AF09A95660F771F881FDAF7880FFB
:101250009695879597F9089597F99F6780E870E0CC
:1012600060E008959FEF80EC089500240A9416161C
:10127000170618060906089500240A941216130684
:10128000140605060895092E0394000C11F4882312
:1012900052F0BB0F40F4BF2B11F460FF04C06F5F2E
:1012A0007F4F8F4F9F4F089557FD9058440F551F04
:1012B00059F05F3F71F04795880F97FB991F61F0D8
:1012C0009F3F79F087950895121613061406551F4F
:1012D000F2CF4695F1DF08C0161617061806991FBB
:1012E000F1CF86957105610508940895E894BB27B0
:1012F00066277727CB0197F908950E9490090C94EF
:1013000043090E94350938F00E943C0920F09523DA
:1013100011F00C942C090C94320911240C947709C7
:101320000E94540970F3959FC1F3950F50E0551F2B
:10133000629FF001729FBB27F00DB11D639FAA272A
:10134000F00DB11DAA1F649F6627B00DA11D661F79
:10135000829F2227B00DA11D621F739FB00DA11D9A
:10136000621F839FA00D611D221F749F3327A00D54
:10137000611D231F849F600D211D822F762F6A2FF0
:1013800011249F5750409AF0F1F088234AF0EE0F55
:10139000FF1FBB1F661F771F881F91505040A9F782
:1013A0009E3F510580F00C942C090C9477095F3F07
:1013B000E4F3983ED4F3869577956795B795F795BE
:1013C000E7959F5FC1F7FE2B880F911D9695879536
:1013D00097F908952F923F924F925F926F927F926A
:1013E0008F929F92AF92BF92CF92DF92EF92FF9235
:1013F0000F931F93CF93DF93CDB7DEB7CA1BDB0BE1
:101400000FB6F894DEBF0FBECDBF09942A88398885
:1014100048885F846E847D848C849B84AA84B9848C
:10142000C884DF80EE80FD800C811B81AA81B98198
:10143000CE0FD11D0FB6F894DEBF0FBECDBFED01AC
:101440000895283008F027E03327DA01990F311D7D
:1014500087FD916000966105710539F432602E5F59
:101460003D9330E32A95E1F708959F3F30F08038AF
:101470007105610509F03C5F3C5F3D93913008F0D8
:101480008068911DDF93CF931F930F93FF92EF928C
:10149000192F987F9695E92F96959695E90FFF2736
:1014A000E653FF4F99273327EE24FF24A701E701D6
:1014B00005900894079428F4360FE71EF81E491F7C
:1014C000511D660F771F881F991F0694A1F705907D
:1014D000079428F4E70EF81E491F561FC11D770F09
:1014E000881F991F661F0694A1F70590079428F49A
:1014F000F80E491F561FC71FD11D880F991F661F61
:10150000771F0694A1F70590079420F4490F561F02
:10151000C71FD81F990F661F771F881F0694A9F74A
:1015200084911095177041F0D695C79557954795BA
:10153000F794E7941A95C1F7E0E7F0E06894159006
:10154000159135916591959105907FE27395E1181C
:10155000F10A430B560BC90BD009C0F7E10CF11E81
:10156000431F561FC91FD01D7EF4703311F48A9596
:10157000E6CFE894015030F0080F0AF40027021774
:1015800008F4202F2395022F7A3328F079E37D93F6
:101590002A95E9F710C07D932A9589F606949795C8
:1015A0006795379517951794E118F10A430B560B79
:1015B000C90BD00998F023957E9173957A3308F082
:1015C00070E37C932013B8F77E9170617D9330F0C7
:1015D000839571E37D9370E32A95E1F71124EF90F1
:1015E000FF900F911F91CF91DF91992787FD9095E3
:1015F0000895FC010590615070400110D8F7809566
:1016000090958E0F9F1F0895FC01615070400190CE
:101610000110D8F7809590958E0F9F1F0895B0E028
:10162000A0E0E5E1FBE00C94FA09AE01475F5F4FF3
:101630006F8178858D819E810E94DA00E2E00C94B2
:10164000160A0F931F93CF93DF93182F092FEB01E7
:101650008B8181FD09C01FEF0FEF812F902FDF914C
:10166000CF911F910F91089582FF14C02E813F8169
:101670008C819D81281739073CF4E881F981CF01DD
:1016800001969983888310838E819F8101969F8321
:101690008E83E3CFE885F985812F0995892BA1F306
:1016A000DACFB0E0A0E0E7E5FBE00C94FA09AE0188
:1016B000475F5F4F6F8178858D819E810E947C0D91
:1016C000E2E00C94160AB0E0A0E0E9E6FBE00C943E
:1016D000F0095B014A017901D90113962C91D0E000
:1016E000C0E021FF1AC0C815D905B9F08C016C0102
:1016F000CA0CDB1C0CC00F5F1F4FD7011896ED9171
:10170000FC91B701DC018C910995892B31F4C8015A
:101710000C151D0581F72196E6CFCE01CDB7DEB7BA
:10172000ECE00C940C0AFA01AA27283051F1203180
:1017300081F1E8946F936E7F6E5F7F4F8F4F9F4F65
:10174000AF4FB1E03ED0B4E03CD0670F781F891FA7
:101750009A1FA11D680F791F8A1F911DA11D6A0F75
:10176000711D811D911DA11D20D009F468943F9128
:101770002AE0269F11243019305D3193DEF6CF0127
:101780000895462F4770405D4193B3E00FD0C9F7ED
:10179000F6CF462F4F70405D4A3318F0495D31FD5A
:1017A0004052419302D0A9F7EACFB4E0A6959795AD
:1017B000879577956795BA95C9F700976105710583
:1017C00008959B01AC010A2E0694579547953795CD
:1017D0002795BA95C9F7620F731F841F951FA01D27
:1017E000089520FD09C0FC0123FD05C022FF02C0B1
:1017F0007383628351834083089544FD17C046FD7F
:101800001DC0DB01FC01AA0FBB1FEE1FFF1F1094C0
:10181000D1F76A0F7B1F8E1F9F1F660F771F881FD0
:10182000991F620F711D811D911D089533E0660F90
:10183000771F881F991F3150D1F7F3CF34E0F7CFCE
:101840000F931F93CF93DF938C01C8010E94950ED5
:10185000EC0197FD08C00E94810E892BB1F7B801F9
:10186000CE010E94D10ECE01DF91CF911F910F9139
:1018700008958F929F92AF92BF92EF92FF920F9333
:101880001F93CF93DF938C01D62F7A01B22E0E9443
:10189000950E9C0133272B32310529F02D3231056D
:1018A000A9F46894B7F8D15061F480E0DF91CF914A
:1018B0001F910F91FF90EF90BF90AF909F908F90EE
:1018C0000895C8010E94950E97FDEFCFCB2DCD7FD7
:1018D0002B2D2073F9F48033E9F4AA24AA94AD0ED9
:1018E00089F0C8010E94950E97FD0CC0282F2F7D0E
:1018F000283561F4C264D25029F0C8010E94950EC7
:1019000097FF08C0812C912C54011BC0B6FE2BC040
:10191000C260DA2D812C912C540120ED280F283043
:1019200028F1C4FD09C02A3008F1C6FF05C02F7D8B
:101930003FEE320F3630C8F0B8010E94D10EC1FF21
:10194000B4CFC7FF08C0B094A09490948094811C39
:10195000911CA11CB11C2C2FB501A401C7010E9430
:10196000F10B81E0A3CFC261D4CF27504C2FC5012A
:10197000B4010E94FD0B4B015C01C260D15009F320
:10198000C8010E94950E97FFC8CFD9CFA0E2B0E062
:10199000ECECFCE00C94EF095C01962E7A01CE0190
:1019A00001966C0180E2F60111928A95E9F7F50142
:1019B000B381890130E020E0712C812CA0E041E06E
:1019C00050E0F801B3FD8591B3FF8191982F8F010D
:1019D000811107C010E000E0C801A096EDE00C9472
:1019E0000B0A8E3519F42115310541F1A2171306A2
:1019F0004CF48D3549F18D3229F4811006C08824CC
:101A000083941DC0882009F464C0E92FE695E6950B
:101A1000E695EC0DFD2DF11D892F8770BA0101C0EF
:101A2000660F8A95EAF78081682B6083791651F0FA
:101A3000971510F49F5FE9CF9150E7CFA1E02F5F9A
:101A40003F4FBFCF812CFBCF882019F08E81806261
:101A50008E83AA2359F0F6019E012F5D3F4F8081AE
:101A6000809580833196E217F307C9F78824839421
:101A7000C5010E94950E97FD16C0E82FE695E695E4
:101A8000E695EC0DFD2DF11D208130E0AC01477095
:101A9000552702C0359527954A95E2F720FD06C0E7
:101AA000B5010E94D10E882069F094CFE114F104B1
:101AB00029F0F7018083C70101967C019A94812C5B
:101AC0009110D6CFE114F10409F486CFF70110820A
:101AD00083CFE82FE695E695E695EC0DFD2DF11DFB
:101AE000982F9770BA0101C0660F9A95EAF7908116
:101AF000692B6083782EA3CFB0E0A0E0E2E8FDE0A0
:101B00000C94ED096C01EB015A01FC01178216825D
:101B1000512CF601E380FE01E3FC8591E3FE819107
:101B2000182FEF018823E9F090E00E94810E892BA5
:101B300021F0C6010E94200CECCF153241F4FE01C9
:101B4000E3FC1591E3FE1191EF01153269F4C60132
:101B50000E94950E97FD8EC01817D9F2B6010E940B
:101B6000D10E852D90E08AC000E01A3231F4E3FCFA
:101B70001591E3FE1191EF0101E0F12C20ED210F11
:101B80002A3048F101FF37C0FF2059F31836B1F170
:101B90001C3609F43DC0112321F3612F70E08AE661
:101BA00091E00E948A0E892BE1F2912C812C00FD9C
:101BB00006C0F50180809180C50102965C011E3649
:101BC00079F5F6014681578170E060E0202FC4016D
:101BD0000E94F10B9ECF02606F2D70E090E080E0DC
:101BE00040E20E94FD0BF62EFE01E3FC1591E3FEA0
:101BF0001191EF01C3CFFF24FA94C8CFFE01E3FC9B
:101C00001591E3FE1191EF01183609F0C4CF086079
:101C10000460FE01E3FC1591E3FE1191EF01BBCFDF
:101C20001336C1F401FD02C0FF24F394C6010E94E3
:101C3000950E97FD1FC08114910429F0F401808353
:101C4000C40101964C01FA94F110F0CF00FD61CF70
:101C500053945FCF1B35B9F49E01A4016F2DC601CB
:101C60000E94C60CEC01892B89F7F60183818073F1
:101C700009F477CF8FEF9FEF511073CFCDB7DEB759
:101C8000EFE00C94090AC6010E94200C97FDF2CFE8
:101C90001F36A9F130F4143641F0193639F00064DA
:101CA00005C01337B9F01537D1F70062202FA40112
:101CB0006F2DC6010E94390C8111C8CFD6CF811477
:101CC000910429F0F4016082C40101964C01FA9458
:101CD000FF2071F0C6010E94950E3C0197FD08C0DF
:101CE0000E94810E892B59F3B601C3010E94D10EC7
:101CF0008114910409F4AACFF4011082A7CF0061E6
:101D0000D5CF91110C94E90E803219F0895085508D
:101D1000C8F70895FC010590061621F00020D9F7B8
:101D2000C00108953197CF010895CF93DF93EC015F
:101D30002B8120FF1AC026FF0CC02F7B2B838E81A6
:101D40009F8101969F838E838A8190E0DF91CF915E
:101D5000089522FF18C0E881F9818081082E000CC7
:101D6000990B009729F420622B838FEF9FEFEECF22
:101D70003196F983E8832E813F812F5F3F4F3F8368
:101D80002E839927E3CFEA85FB85099597FFF3CF4B
:101D90002B81019621F080E2822B8B83E6CF80E1BC
:101DA000FBCFFB01238120FF11C026FD0FC08F3F19
:101DB000980771F082832F7D2064238326813781E9
:101DC0002150310937832683992708958FEF9FEF9C
:0C1DD0000895992788270895F894FFCF04
:101DDC0000000003000000007606980600000000DA
:101DEC000002000000005304000000001B0C002047
:101DFC0020507265737320427574746F6E201BC013
:101E0C00202020746F205374617274001B01002019
:101E1C002047616D65205374617274696E6700515F
:101E2C000A00484B46430A0025731BC02573004328
:101E3C0025632530336425632530336425640A001B
:101E4C001BC0257320202573002A72696E672A0A2D
:021E5C00000084
:00000001FF
